:100000000C9434000C9449000C9449000C94490061
:100010000C9449000C9449000C9449000C9449003C
:100020000C9449000C9449000C9449000C9449002C
:100030000C9449000C9449000C9449000C9449001C
:100040000C9449000C9449000C9449000C9449000C
:100050000C9449000C9449000C9449000C944900FC
:100060000C9449000C94490011241FBECFEFD8E036
:10007000DEBFCDBF11E0A0E0B1E0ECEAF5E002C0E8
:1000800005900D92A033B107D9F70E944B000C9454
:10009000D4020C940000CF93DF9300D01F92CDB711
:1000A000DEB7CE0101960E94C302CE0102960E94E5
:1000B000750287B1816087B98AB180628AB98AB1D5
:1000C00080618AB98AB180648AB98AB188608AB944
:1000D00088B18E7F88B92FE78FE492E1215080406C
:1000E0009040E1F700C00000CE0103960E9431016C
:1000F0002FE78FE492E1215080409040E1F700C06B
:10010000000020E040E060E0CE0102960E9476020E
:10011000CE0103960E943401009709F07EC0CE0103
:1001200003960E9496018C01892B61F5CE010396FE
:100130000E940202892BA9F420E041E060E0CE0198
:1001400002960E9476022FE78FE492E121508040D0
:100150009040E1F700C00000CE0101960E94C40269
:10016000C7CF21E041E061E0CE0102960E94760215
:100170002FE78FE492E1215080409040E1F700C0EA
:100180000000B6CF21E040E061E0CE0102960E947F
:1001900076022FE78FE492E1215080409040E1F712
:1001A00000C000000130110589F421E041E061E068
:1001B000CE0102960E9476022FE78FE492E1215051
:1001C00080409040E1F700C0000092CF063011055A
:1001D00089F421E041E060E0CE0102960E947602BF
:1001E0002FE78FE492E1215080409040E1F700C07A
:1001F00000007ECF0730110541F420E041E060E0CF
:10020000CE0102960E94760273CF20E040E060E0CB
:10021000CE0102960E9476026BCF029789F421E00C
:1002200040E060E0CE0102960E9476022FE78FE464
:1002300092E1215080409040E1F700C0000058CF8B
:1002400020E040E061E0CE0102960E9476022FE7B6
:100250008FE492E1215080409040E1F700C000001F
:1002600047CF0E94AD020895CF92DF92EF92FF92A6
:100270000F931F93CF93DF93CDB7DEB768970FB679
:10028000F894DEBF0FBECDBFE82EF92E8CE0E0E083
:10029000F1E0DE01119601900D928A95E1F7FE01E1
:1002A0003D968CE0DF011D928A95E9F700E010E0B1
:1002B0000C30110574F4E1E0F0E0EC0FFD1FE00FED
:1002C000F11F60818E2D9F2D0E94B5020F5F1F4F81
:1002D000EFCFDE2CCF2C8E2D9F2D0E94BC028F3EA7
:1002E000C1F78D8701E010E00C30110574F48D2DFD
:1002F0009C2D0E94BC02EDE0F0E0EC0FFD1FE00F32
:10030000F11F80830F5F1F4FEFCF8E8990E06896BB
:100310000FB6F894DEBF0FBECDBFDF91CF911F9116
:100320000F91FF90EF90DF90CF900895CF92DF92E2
:10033000EF92FF920F931F93CF93DF93CDB7DEB76A
:1003400067970FB6F894DEBF0FBECDBFC82ED92E6B
:100350008BE0E4E2F1E0DE01119601900D928A95C6
:10036000E1F7FE013C968CE0DF011D928A95E9F7EA
:1003700000E010E00B30110574F4E1E0F0E0EC0F68
:10038000FD1FE00FF11F60818C2D9D2D0E94B50295
:100390000F5F1F4FEFCFFC2CED2C60E08C2D9D2DBF
:1003A0000E94B50268E08C2D9D2D0E94B5028F2D14
:1003B0009E2D0E94BC028F3ED1F78C8701E010E099
:1003C0000C30110574F48F2D9E2D0E94BC02ECE0C0
:1003D000F0E0EC0FFD1FE00FF11F80830F5F1F4F58
:1003E000EFCF8D8990E067960FB6F894DEBF0FBE11
:1003F000CDBFDF91CF911F910F91FF90EF90DF90D4
:10040000CF900895CF92DF92EF92FF920F931F93B8
:10041000CF93DF93CDB7DEB76F970FB6F894DEBFFB
:100420000FBECDBFC82ED92EFE0131968FE0DF0161
:100430001D928A95E9F78FEE898391E09A838FEF79
:100440008B838C838D838E839F838BE18A879B87AD
:1004500083EA8F8788E0898700E010E00F3011057C
:1004600074F4E1E0F0E0EC0FFD1FE00FF11F60819C
:100470008C2D9D2D0E94B5020F5F1F4FEFCFFC2CDE
:10048000ED2C60E08C2D9D2D0E94B50268EC8C2D2A
:100490009D2D0E94B5028F2D9E2D0E94BC028F3E85
:1004A000D1F701E010E00031110574F48F2D9E2D7D
:1004B0000E94BC02E0E1F0E0EC0FFD1FE00FF11F35
:1004C00080830F5F1F4FEFCF898D90E06F960FB63F
:1004D000F894DEBF0FBECDBFDF91CF911F910F917A
:1004E000FF90EF90DF90CF9008950895662321F05C
:1004F0008BB180628BB903C08BB18F7D8BB94423E4
:1005000021F08BB180648BB903C08BB18F7B8BB929
:10051000222321F08BB180618BB908958BB18F7E3E
:100520008BB908958AB182608AB98AB18E7F8AB9FF
:100530001092C50089E18093C400E2ECF0E0808174
:1005400086608083E1ECF0E0808188618083E0EC6C
:10055000F0E08081826080830895E4E6F0E020810D
:100560002D7F20830E94920208958091C00085FF14
:10057000FCCF6093C60008958091C0008823E4F703
:100580008091C600089508958BB188608BB92FEFD4
:100590008CED9DE6215080409040E1F700C00000C6
:0C05A0008BB1877F8BB90895F894FFCFD2
:1005AC00EF01FFFFFFFF010003010005EF01FFFF5B
:1005BC00FFFF0100030A000EEF01FFFFFFFF010028
:1005CC00030B000FEF01FFFFFFFF0100040201000E
:00000001FF
